:100000000C9434000C9449000C9449000C94490061
:100010000C9449000C9449000C9449000C9449003C
:100020000C9449000C9449000C9449000C947E00F7
:100030000C9449000C9474000C9449000C944900F1
:100040000C946A000C9449000C9449000C944900EB
:100050000C9449000C9449000C9449000C944900FC
:100060000C9449000C94490011241FBECFEFD8E036
:10007000DEBFCDBF11E0A0E0B1E0E0E6F1E002C0FC
:1000800005900D92A230B107D9F70E9494000C940C
:10009000AE000C9400001092C50080E18093C40073
:1000A00088E18093C10086E08093C200089590911A
:1000B000C00095FFFCCF8093C6000895CF93DF93D7
:1000C000EC018991882319F00E945700FACFDF9143
:1000D000CF9108951F920F920FB60F9211240F9097
:1000E0000FBE0F901F9018951F920F920FB60F9290
:1000F00011240F900FBE0F901F9018951F920F9212
:100100000FB60F9211248F939F9385B190E28927A8
:1001100085B910928500109284009F918F910F9065
:100120000FBE0F901F9018950E944B00F894259ACF
:100130002D9A14BC81E080936E0084E085BD1092FE
:1001400080001092890083EC8093880083E0809384
:100150006F008AE0809381007894FFCFF894FFCFFE
:0201600010008D
:00000001FF
